{
  "contractName": "Election",
  "abi": [
    {
      "inputs": [],
      "stateMutability": "nonpayable",
      "type": "constructor"
    },
    {
      "anonymous": false,
      "inputs": [
        {
          "indexed": false,
          "internalType": "uint256",
          "name": "_id",
          "type": "uint256"
        },
        {
          "indexed": false,
          "internalType": "string",
          "name": "name",
          "type": "string"
        },
        {
          "indexed": false,
          "internalType": "uint256",
          "name": "votesCount",
          "type": "uint256"
        }
      ],
      "name": "electionUpdate",
      "type": "event"
    },
    {
      "inputs": [
        {
          "internalType": "uint256",
          "name": "",
          "type": "uint256"
        }
      ],
      "name": "candidates",
      "outputs": [
        {
          "internalType": "uint256",
          "name": "_id",
          "type": "uint256"
        },
        {
          "internalType": "string",
          "name": "name",
          "type": "string"
        },
        {
          "internalType": "uint256",
          "name": "votesCount",
          "type": "uint256"
        }
      ],
      "stateMutability": "view",
      "type": "function",
      "constant": true
    },
    {
      "inputs": [],
      "name": "candidatesCount",
      "outputs": [
        {
          "internalType": "uint256",
          "name": "",
          "type": "uint256"
        }
      ],
      "stateMutability": "view",
      "type": "function",
      "constant": true
    },
    {
      "inputs": [
        {
          "internalType": "address",
          "name": "",
          "type": "address"
        }
      ],
      "name": "hasVoted",
      "outputs": [
        {
          "internalType": "bool",
          "name": "",
          "type": "bool"
        }
      ],
      "stateMutability": "view",
      "type": "function",
      "constant": true
    },
    {
      "inputs": [
        {
          "internalType": "uint256",
          "name": "_id",
          "type": "uint256"
        }
      ],
      "name": "Vote",
      "outputs": [],
      "stateMutability": "nonpayable",
      "type": "function"
    }
  ],
  "bytecode": "0x608060405234801561001057600080fd5b506100556040518060400160405280600d81526020017f4e6172656e647261204d6f6469000000000000000000000000000000000000008152506100e260201b60201c565b6100996040518060400160405280600c81526020017f526168756c2047616e64686900000000000000000000000000000000000000008152506100e260201b60201c565b6100dd6040518060400160405280600f81526020017f417276696e64204b656a726977616c00000000000000000000000000000000008152506100e260201b60201c565b6101f9565b6000808154809291906001019190505550604051806060016040528060005481526020018281526020016000815250600160008054815260200190815260200160002060008201518160000155602082015181600101908051906020019061014b92919061015c565b506040820151816002015590505050565b828054600181600116156101000203166002900490600052602060002090601f016020900481019282601f1061019d57805160ff19168380011785556101cb565b828001600101855582156101cb579182015b828111156101ca5782518255916020019190600101906101af565b5b5090506101d891906101dc565b5090565b5b808211156101f55760008160009055506001016101dd565b5090565b61058c806102086000396000f3fe608060405234801561001057600080fd5b506004361061004c5760003560e01c806309eef43e146100515780632d35a8a2146100ab5780633477ee2e146100c9578063dcd6a5cd1461017e575b600080fd5b6100936004803603602081101561006757600080fd5b81019080803573ffffffffffffffffffffffffffffffffffffffff1690602001909291905050506101ac565b60405180821515815260200191505060405180910390f35b6100b36101cc565b6040518082815260200191505060405180910390f35b6100f5600480360360208110156100df57600080fd5b81019080803590602001909291905050506101d2565b6040518084815260200180602001838152602001828103825284818151815260200191508051906020019080838360005b83811015610141578082015181840152602081019050610126565b50505050905090810190601f16801561016e5780820380516001836020036101000a031916815260200191505b5094505050505060405180910390f35b6101aa6004803603602081101561019457600080fd5b8101908080359060200190929190505050610294565b005b60026020528060005260406000206000915054906101000a900460ff1681565b60005481565b6001602052806000526040600020600091509050806000015490806001018054600181600116156101000203166002900480601f0160208091040260200160405190810160405280929190818152602001828054600181600116156101000203166002900480156102845780601f1061025957610100808354040283529160200191610284565b820191906000526020600020905b81548152906001019060200180831161026757829003601f168201915b5050505050908060020154905083565b600260003373ffffffffffffffffffffffffffffffffffffffff1673ffffffffffffffffffffffffffffffffffffffff16815260200190815260200160002060009054906101000a900460ff1615610354576040517f08c379a00000000000000000000000000000000000000000000000000000000081526004018080602001828103825260168152602001807f596f75206861766520616c726561647920766f7465640000000000000000000081525060200191505060405180910390fd5b6000600160008381526020019081526020016000206000015414156103e1576040517f08c379a00000000000000000000000000000000000000000000000000000000081526004018080602001828103825260118152602001807f496420646f65736e27742065786973747300000000000000000000000000000081525060200191505060405180910390fd5b60016000828152602001908152602001600020600201600081548092919060010191905055506001600260003373ffffffffffffffffffffffffffffffffffffffff1673ffffffffffffffffffffffffffffffffffffffff16815260200190815260200160002060006101000a81548160ff0219169083151502179055507f523108b00f11d4cb164fec20a7d91695c7c58e86ff5bf8afe194d97650811b108160016000848152602001908152602001600020600101600160008581526020019081526020016000206002015460405180848152602001806020018381526020018281038252848181546001816001161561010002031660029004815260200191508054600181600116156101000203166002900480156105435780601f1061051857610100808354040283529160200191610543565b820191906000526020600020905b81548152906001019060200180831161052657829003601f168201915b505094505050505060405180910390a15056fea26469706673582212207a5bfad8702ee27ea224205b265431c025262f9ee07c11bd3c32594cbfa9c81264736f6c63430007000033",
  "immutableReferences": {},
  "source": "// SPDX-License-Identifier: MIT\r\npragma solidity ^0.7.0;\r\n\r\ncontract Election {\r\n    \r\n    struct Candidate {\r\n        uint _id;\r\n        string name;\r\n        uint votesCount;\r\n    }\r\n    \r\n    event electionUpdate (\r\n        uint _id,\r\n        string name,\r\n        uint votesCount\r\n    );\r\n    \r\n    uint public candidatesCount;\r\n    \r\n    mapping(uint => Candidate) public candidates;\r\n    \r\n    mapping(address => bool) public hasVoted;\r\n    \r\n    constructor() {\r\n        addCandidates(\"Narendra Modi\");\r\n        addCandidates(\"Rahul Gandhi\");\r\n        addCandidates(\"Arvind Kejriwal\");\r\n    }\r\n    \r\n    function addCandidates(string memory name) private{\r\n        candidatesCount++;\r\n        candidates[candidatesCount] = Candidate(candidatesCount, name, 0);\r\n    }\r\n    \r\n    function Vote(uint _id) public {\r\n        require(!hasVoted[msg.sender], \"You have already voted\");\r\n        require(candidates[_id]._id != 0, \"Id doesn't exists\");\r\n        \r\n        candidates[_id].votesCount ++;\r\n        hasVoted[msg.sender] = true;\r\n        emit electionUpdate(_id, candidates[_id].name, candidates[_id].votesCount);  \r\n    }\r\n        \r\n}",
  "sourcePath": "C:/Users/Pratap/Desktop/vote-app/contracts/Election.sol",
  "compiler": {
    "name": "solc",
    "version": "0.7.0+commit.9e61f92b.Emscripten.clang"
  },
  "schemaVersion": "3.4.1",
  "updatedAt": "2021-06-20T10:20:30.114Z",
  "networkType": "ethereum",
  "devdoc": {
    "kind": "dev",
    "methods": {},
    "version": 1
  },
  "userdoc": {
    "kind": "user",
    "methods": {},
    "version": 1
  }
}